:020000040800F2
:1000000000280020F5020008450300084503000809
:1000100045030008450300084503000800000000F0
:100020000000000000000000000000004503000880
:1000300045030008000000004503000845030008D0
:100040004503000845030008450300084503000870
:1000500045030008450300088D050008B1050008A8
:10006000D5050008F90500081D060008450300082D
:100070004503000845030008450300084503000840
:100080004503000845030008450300084503000830
:100090004503000845030008450300084106000821
:1000A0004503000845030008450300084503000810
:1000B0004503000845030008450300084503000800
:1000C00045030008450300084503000845030008F0
:1000D00045030008090B00081D0B0008310B000840
:1000E000E906000845030008000000004503000879
:1000F00045030008450300084503000845030008C0
:1001000045030008450300084503000845030008AF
:10011000450300084503000845030008450300089F
:10012000450300084503000845030008450300088F
:1001300010B5054C237833B9044B13B10448AFF321
:1001400000800123237010BD00000020000000008B
:100150009C0D000808B5034B1BB103490348AFF3DE
:10016000008008BD00000000040000209C0D000875
:1001700080B400AF0D4B9B690C4A43F004039361BC
:100180000A4B9B69094A43F008039361074B9B693B
:10019000064A43F010039361044B9B69034A43F002
:1001A0000103936100BFBD4680BC70470010024050
:1001B00080B582B000AF0423BB800423BB71012350
:1001C000FB713B1D1946094800F00FFD2023BB8041
:1001D0000423BB710123FB713B1D1946034800F04A
:1001E00004FD00BF0837BD4680BD00BF00080140C8
:1001F00080B485B000AF78600023FB600BE0002383
:10020000BB6002E0BB680133BB60BB68FE2BF9D961
:10021000FB680133FB60FA687B689A42EFD300BF4A
:100220001437BD4680BC704780B500AF01221A4923
:100230001A4800F0D7FB184B1B78DBB2FD2B10D10E
:100240000421174800F075FD4FF47A70FFF7D0FFD6
:100250000421134800F06DFD4FF47A70FFF7C8FFDA
:1002600014E00D4B1B78DBB2FA2B0FD120210C4888
:1002700000F05FFD4FF47A70FFF7BAFF20210848C5
:1002800000F057FD4FF47A70FFF7B2FF024B0022E7
:100290001A7000BF80BD00BF1C0000200038014064
:1002A0000008014080B586B000AFFFF761FF00F0A5
:1002B00031F9FFF77DFF4FF4E133BB600023FB739F
:1002C00020233B74094B7B6100237B7300233B732A
:1002D0000023BB7304233B71054800F0AFFB3B1DBB
:1002E0001946034800F0BCFAFEE700BF29020008E7
:1002F000003801400D488546AFF300800C480D4999
:100300000D4A002302E0D458C4500433C4188C4270
:10031000F9D30A4A0A4C002301E013600432A242D6
:10032000FBD300F017FDFFF7BDFFFEE7002800201C
:100330000000002000000020D40D00080000002074
:1003400064000020FEE780B485B000AF7860002331
:10035000FB600BE00023BB6002E0BB680133BB60C5
:10036000BB68FE2BF9D9FB680133FB60FA687B6838
:100370009A42EFD300BF1437BD4680BC70470000DF
:1003800080B500AF524B4FF480721A80504B04225C
:100390009A704F4B0122DA704D494E4800F025FC0F
:1003A0004B4B4FF400721A80494B04229A70484B11
:1003B0000122DA704649474800F017FC444B4FF4DD
:1003C00080621A80424B04229A70414B0122DA70FB
:1003D0003F49404800F009FC3D4B01221A803C4B4C
:1003E00004229A703A4B0122DA703949394800F0F8
:1003F000FCFB374B02221A80354B04229A70344B97
:100400000122DA703249334800F0EFFB304B04220E
:100410001A802F4B04229A702D4B0122DA702C493E
:100420002C4800F0E2FB2A4B08221A80284B0422B9
:100430009A70274B0122DA702549264800F0D5FB37
:10044000234B10221A80224B04229A70204B012247
:10045000DA701F491F4800F0C8FB1D4B20221A808C
:100460001B4B04229A701A4B0122DA701849194862
:1004700000F0BBFB164B40221A80154B04229A70E9
:10048000134B0122DA701249124800F0AEFB104BF8
:1004900080221A800E4B04229A700D4B0122DA70D2
:1004A0000B490C4800F0A1FB00224FF48061094881
:1004B00000F01AFC00224FF48071064800F014FC92
:1004C00000224FF40071034800F00EFC00BF80BD15
:1004D00024000020000C014080B500AF012000F096
:1004E00033F800BF80BD000080B500AF01224FF49B
:1004F0008061074800F0F8FB3220FFF724FF00225C
:100500004FF48061024800F0EFFB00BF80BD00BFE8
:10051000000C014080B500AF1420FFF714FFFFF777
:100520002FFF0F20FFF70FFFFFF7D6FF382000F057
:100530000BF8062000F008F8802000F005F80F20E6
:1005400000F002F800BF80BD80B582B000AF034666
:10055000FB71FB7919460C4800F0DDFB00224FF4DB
:100560000071094800F0C0FB00224FF4807106487A
:1005700000F0BAFB0120FFF7E6FEFFF7B5FF00BF72
:100580000837BD4680BD00BF000C014080B500AFFC
:10059000054B5B69044A43F001035361034B1B683D
:1005A000984700BF80BD00BF000401402800002024
:1005B00080B500AF054B5B69044A43F00203536109
:1005C000034B5B68984700BF80BD00BF000401403B
:1005D0002800002080B500AF054B5B69044A43F05A
:1005E00004035361034B9B68984700BF80BD00BF65
:1005F000000401402800002080B500AF054B5B6976
:10060000044A43F008035361034BDB68984700BF7B
:1006100080BD00BF000401402800002080B500AF6D
:10062000054B5B69044A43F010035361034B1B699C
:10063000984700BF80BD00BF000401402800002093
:1006400080B500AF264B5B6903F02003002B08D078
:10065000234B5B69224A43F020035361214B5B69C2
:1006600098471F4B5B6903F04003002B08D01C4BDD
:100670005B691B4A43F0400353611A4B9B699847DF
:10068000174B5B6903F08003002B08D0144B5B69A8
:10069000134A43F080035361124BDB699847104BB8
:1006A0005B6903F48073002B08D00D4B5B690C4A27
:1006B00043F4807353610B4B1B6A9847084B5B698B
:1006C00003F40073002B08D0054B5B69044A43F424
:1006D00000735361034B5B6A984700BF80BD00BF46
:1006E000000401402800002080B500AF2D4B5B695D
:1006F00003F48063002B08D02A4B5B69294A43F43A
:1007000080635361284B9B6A9847264B5B6903F4CF
:100710000063002B08D0234B5B69224A43F400633B
:100720005361214BDB6A98471E4B5B6903F480538E
:10073000002B08D01B4B5B691A4A43F4805353616A
:10074000194B1B6B9847174B5B6903F40053002B45
:1007500008D0144B5B69134A43F400535361124BA6
:100760005B6B98470F4B5B6903F48043002B08D009
:100770000C4B5B690B4A43F4804353610A4B9B6B00
:100780009847084B5B6903F40043002B08D0054BE6
:100790005B69044A43F400435361034BDB6B9847A6
:1007A00000BF80BD000401402800002080B400AFDD
:1007B0000A4B5B689B0803F00303012B06D0012B57
:1007C00002D3022B04D005E0054B03E0054B01E00A
:1007D000034BFFE71846BD4680BC7047001002403F
:1007E0000024F40000127A0080B500AFFFF7DEFFAE
:1007F0000146054B5B681B0903F00F03034AD35CFA
:1008000021FA03F3184680BD00100240BC0D000819
:1008100080B500AFFFF7E8FF0146054B5B681B0A98
:1008200003F00703034AD35C21FA03F3184680BDA3
:1008300000100240B40D000880B500AFFFF7D4FFF0
:100840000146054B5B68DB0A03F00703034AD35CF0
:1008500021FA03F3184680BD00100240B40D0008D1
:1008600080B584B000AF78603960574A3B68136048
:100870007B68564A934206D1554B9B69544A43F4D0
:100880008043936114E07B68524A934206D1504BF7
:10089000DB694F4A43F40033D36109E07B684E4A79
:1008A000934205D14A4BDB69494A43F48023D36123
:1008B0007B68DB6843F400527B68DA607B68DB6846
:1008C0003A6812781A437B68DA607B68DB683A68BA
:1008D000127A1A437B68DA607B68DB683A68527A7E
:1008E0001A437B68DA607B681B693A68927A1A431C
:1008F0007B681A617B685B693A68D27A1A437B68C5
:100900005A617B68314A934203D1FFF795FFF86043
:1009100002E0FFF77DFFF8603B685B681B01FA6847
:10092000B2FBF3F31901FA6813469B0013449A00D3
:100930001A443B685B689B00B2FBF3F23B685B6860
:100940001B01F868B0FBF3F3642000FB03F3D31A38
:100950001B01224AA2FB03235B0903F00F030B4395
:10096000BB607B68BA689A603B681B7B002B26D013
:100970007B68DB683A68127B1A437B68DA607B68C5
:10098000124A934206D1164B1B68154A43F02003C6
:10099000136014E07B680F4A934206D1104B1B682A
:1009A0000F4A43F04003136009E07B680A4A934210
:1009B00005D10B4B1B680A4A43F08003136000BF4C
:1009C0001037BD4680BD00BF200000200038014028
:1009D0000010024000440040004800401F85EB51D9
:1009E00004E100E080B485B000AFF860B960134660
:1009F000FB71FB79002B06D100BFFB681B6803F07D
:100A00002003002BF9D00C4B1B685B7A002B05D11F
:100A1000FB685B68DAB2BB681A7007E0FB685B686A
:100A2000DBB203F07F03DAB2BB681A7000BF143781
:100A3000BD4680BC704700BF2000002080B584B058
:100A400000AF78607B682B4A934218D14FF4007353
:100A5000BB810623BB730123FB7307F10C0319460B
:100A6000254800F0C2F84FF48063BB810823BB73B4
:100A700007F10C031946204800F0B7F836E07B6810
:100A80001E4A934216D10423BB810623BB73012364
:100A9000FB7307F10C031946174800F0A6F808236A
:100AA000BB810823BB7307F10C031946124800F001
:100AB0009CF81BE07B68124A934217D14FF4806385
:100AC000BB810623BB730123FB7307F10C0319469B
:100AD0000C4800F08AF84FF40063BB810823BB7315
:100AE00007F10C031946074800F07FF800BF1037E4
:100AF000BD4680BD00380140000801400044004070
:100B000000480040000C014080B500AF024B1B685C
:100B10001B69984700BF80BD2000002080B500AF52
:100B2000024B1B681B69984700BF80BD2000002056
:100B300080B500AF024B1B681B69984700BF80BDA2
:100B40002000002080B483B000AF0346FB80FB8808
:100B5000802B42D0802B11DC082B36D0082B06DCF2
:100B6000022B2ED0042B2ED0012B28D037E0202BA7
:100B70002FD0402B2FD0102B29D030E0B3F5006FB1
:100B800023D0B3F5006F09DCB3F5007F19D0B3F5BE
:100B9000806F18D0B3F5807F11D020E0B3F5005FEF
:100BA00017D0B3F5005F03DCB3F5805F0FD016E01C
:100BB000B3F5804F0FD0B3F5004F0ED00FE00023F8
:100BC0000EE004230CE008230AE00C2308E01023C5
:100BD00006E0142304E0182302E01C2300E00023B5
:100BE00018460C37BD4680BC704790B585B000AF45
:100BF000786039600023BB600023FB733B681B886F
:100C0000FF2B01D87B6801E07B680433BB603B6845
:100C10001B881846FFF796FF03461A460F2393409A
:100C2000DA43BB681B681A40BB681A603B689B7854
:100C3000072B0BD03B689B78062B07D03B689B7833
:100C4000052B03D03B689B78042B0ED13B689B7827
:100C5000043B9B005AB23B68DB785BB213435BB248
:100C6000DBB203F00F03FB732CE03B689B78002B97
:100C700003D03B689B78012B07D13B689B789B0096
:100C8000DBB203F00F03FB731CE03B689B78082B7F
:100C900002D10423FB7315E00823FB733B689B78A8
:100CA000022B07D17B68DB683A6812881A437B689D
:100CB000DA6007E07B68DB683A681288D2431A4042
:100CC0007B68DA60FC7B3B681B881846FFF73AFFBD
:100CD000034604FA03F2BB681B681A43BB681A6038
:100CE00000BF1437BD4690BD80B483B000AF7860BC
:100CF0000B467B8013467B707B78002B03D07A8871
:100D00007B681A6102E07A887B685A6100BF0C3701
:100D1000BD4680BC704780B483B000AF78600B469E
:100D2000FB70FA787B68DA6000BF0C37BD4680BC88
:100D3000704780B483B000AF78600B467B807B68DF
:100D4000DA687B885A407B68DA6000BF0C37BD46A2
:100D500080BC704770B500250C4E0D4CA41BA41030
:100D6000A54209D100F01AF800250A4E0A4CA41B2E
:100D7000A410A54205D170BD56F82530984701351D
:100D8000EEE756F8253098470135F2E7CC0D00081C
:100D9000CC0D0008CC0D0008D00D0008F8B500BF40
:100DA000F8BC08BC9E467047F8B500BFF8BC08BC4C
:040DB0009E467047A4
:100DB4000000000001020304000000000000000025
:080DC4000102030406070809FF
:040DCC0055010008C5
:040DD00031010008E5
:04000005080002F5F8
:00000001FF
