:020000040800F2
:1000000000280020FD0200084D0300084D030008F1
:100010004D0300084D0300084D03000800000000D8
:100020000000000000000000000000004D03000878
:100030004D030008000000004D0300084D030008B8
:100040004D0300084D0300084D0300084D03000850
:100050004D0300084D0300084D0300084D03000840
:100060004D0300084D0300084D0300084D03000830
:100070004D0300084D0300084D0300084D03000820
:100080004D0300084D0300084D0300084D03000810
:100090004D0300084D0300084D0300084D03000800
:1000A0004D0300084D0300084D0300084D030008F0
:1000B0004D0300084D0300084D0300084D030008E0
:1000C0004D0300084D0300084D0300084D030008D0
:1000D0004D0300084D0300084D0300084D030008C0
:1000E0004D0300084D030008000000004D03000808
:1000F0004D0300084D0300084D0300084D030008A0
:100100004D0300084D0300084D0300084D0300088F
:100110004D0300084D0300084D0300084D0300087F
:100120004D0300084D0300084D0300084D0300086F
:1001300010B5054C237833B9044B13B10448AFF321
:1001400000800123237010BD20000020000000006B
:100150003C0B000808B5034B1BB103490348AFF340
:10016000008008BD00000000240000203C0B0008B7
:1001700080B400AF074B9B69064A43F004039361C8
:10018000044B9B69034A43F00803936100BFBD46DB
:1001900080BC70470010024080B582B000AF4FF4C1
:1001A0000073BB800423BB710123FB713B1D194607
:1001B000274800F0E4FB4FF48063BB800423BB714D
:1001C0000123FB713B1D1946214800F0D8FB4FF479
:1001D0000063BB800423BB710123FB713B1D1946E7
:1001E0001B4800F0CCFB4FF48053BB800423BB7151
:1001F0000123FB713B1D1946154800F0C0FB4FF46D
:100200000053BB800423BB710123FB713B1D1946C6
:100210000F4800F0B4FB4FF48043BB800423BB7154
:100220000123FB713B1D1946094800F0A8FB4FF460
:100230000043BB800423BB710123FB713B1D1946A6
:10024000034800F09CFB00BF0837BD4680BD00BFDF
:10025000000C014080B588B000AFFFF789FFFFF7C1
:100260009BFF00F0AFFA214A07F1100307CA03C34E
:100270001A800233120C1A701D4A3B1D07CA03C3B1
:100280001A800233120C1A700023FB7712E0FB7FF6
:1002900007F12002134413F8103C184600F0CEFA80
:1002A0000021144800F018FC642000F081F9FB7F65
:1002B0000133FB77FB7F0A2BE9D900F049F800F006
:1002C0003FFA0D4800F0DCFA4FF4FA7000F070F9D4
:1002D00000F036FA00F0A2F80346BB77BB7F412B53
:1002E000F8D0BB7F184600F0A9FAF3E7640B0008CA
:1002F000700B0008000C0140540B00080D488546A7
:10030000AFF300800C480D490D4A002302E0D45899
:10031000C4500433C4188C42F9D30A4A0A4C00234F
:1003200001E013600432A242FBD300F0E3FBFFF7CD
:1003300091FFFEE7002800200000002020000020A0
:10034000840B00082000002040000020FEE7000091
:1003500080B582B000AF0123BB800423BB710123B1
:10036000FB713B1D19462C4800F009FB0223BB80A2
:100370000423BB710123FB713B1D1946264800F085
:10038000FEFA0823BB800423BB710123FB713B1DD4
:100390001946214800F0F3FA1023BB800423BB71F7
:1003A0000123FB713B1D19461B4800F0E8FA20238E
:1003B000BB800423BB710123FB713B1D194616480A
:1003C00000F0DDFA4023BB800423BB710123FB71E5
:1003D0003B1D1946104800F0D2FA8023BB8004234D
:1003E000BB710123FB713B1D19460B4800F0C7FA96
:1003F0004FF48073BB800423BB710123FB713B1D51
:100400001946054800F0BBFAFF21034800F064FBE1
:1004100000BF0837BD4680BD000C014080B582B0EA
:1004200000AF00237B60B4E05E4B1B689BB20122EF
:1004300019465D4800F039FB5A4B5B689BB20122BC
:100440001946594800F031FB564B9B689BB201227C
:100450001946554800F029FB524BDB689BB201223C
:100460001946514800F021FB4E4A7B6852F8233070
:100470009BB2002219464C4800F017FB00233B605A
:1004800080E04A4A3B6852F823309BB219464648FE
:1004900000F0F4FA0346002B71D100BF434A3B68D9
:1004A00052F823309BB219463F4800F0E7FA034662
:1004B000002BF3D07B68032B61D801A252F823F004
:1004C000D1040008F90400082105000849050008C6
:1004D0003B68002B01D1372360E03B68012B01D141
:1004E00034235BE03B68022B01D1312356E03B68AB
:1004F000032B3DD13F2351E03B68002B01D1382332
:100500004CE03B68012B01D1352347E03B68022BCF
:1005100001D1322342E03B68032B2BD130233DE055
:100520003B68002B01D1392338E03B68012B01D116
:10053000362333E03B68022B01D133232EE03B68A6
:10054000032B19D13D2329E03B68002B01D12F2338
:1005500024E03B68012B01D12A231FE03B68022BDA
:1005600001D12D231AE03B68032B07D12B2315E083
:1005700000BF04E000BF02E000BF00E000BF3B6836
:1005800001333B603B68032B7FF77BAF7B68013314
:100590007B607B68032B7FF747AF41231846083702
:1005A000BD4680BD10000020000C0140000000206E
:1005B00080B485B000AF78600023FB600BE00023BF
:1005C000BB6002E0BB680133BB60BB68FE2BF9D99E
:1005D000FB680133FB60FA687B689A42EFD300BF87
:1005E0001437BD4680BC704780B500AF524B4FF406
:1005F00080721A80504B04229A704F4B0122DA709D
:100600004D494E4800F0BBF94B4B4FF400721A8035
:10061000494B04229A70484B0122DA7046494748F8
:1006200000F0ADF9444B4FF480621A80424B042233
:100630009A70414B0122DA703F49404800F09FF91F
:100640003D4B01221A803C4B04229A703A4B012206
:10065000DA703949394800F092F9374B02221A8092
:10066000354B04229A70344B0122DA7032493348F8
:1006700000F085F9304B04221A802F4B04229A7027
:100680002D4B0122DA702C492C4800F078F92A4BC6
:1006900008221A80284B04229A70274B0122DA7014
:1006A0002549264800F06BF9234B10221A80224B73
:1006B00004229A70204B0122DA701F491F4800F073
:1006C0005EF91D4B20221A801B4B04229A701A4B94
:1006D0000122DA701849194800F051F9164B4022EE
:1006E0001A80154B04229A70134B0122DA701249BA
:1006F000124800F044F9104B80221A800E4B04225D
:100700009A700D4B0122DA700B490C4800F037F952
:1007100000224FF48061094800F0C7F900224FF42D
:100720008071064800F0C1F900224FF400710348BF
:1007300000F0BBF900BF80BD3C0000200008014074
:1007400080B500AF012000F057F800BF80BD000069
:1007500080B500AF01224FF48061074800F0A5F991
:100760003220FFF725FF00224FF48061024800F09D
:100770009CF900BF80BD00BF0008014080B582B079
:1007800000AF03460A46FB711346BB71FB79012B90
:1007900008D1BB790F2B05D8BB79803BDBB218465B
:1007A00000F02AF8FB79022B08D1BB790F2B05D872
:1007B000BB79403BDBB2184600F01EF800BF08379B
:1007C000BD4680BD80B500AF1420FFF7F1FEFFF7F6
:1007D0000BFF0F20FFF7ECFEFFF7B2FF382000F011
:1007E0000BF8062000F008F8802000F005F80F2034
:1007F00000F002F800BF80BD80B582B000AF0346B4
:10080000FB71FB7919460C4800F066F900224FF4A1
:100810000071094800F049F900224FF48071064840
:1008200000F043F90120FFF7C3FEFFF791FF00BF7F
:100830000837BD4680BD00BF0008014080B582B0CA
:1008400000AF0346FB71FB7919460C4800F044F9F0
:1008500000224FF40071094800F027F901224FF4FB
:100860008071064800F021F90120FFF7A1FEFFF793
:100870006FFF00BF0837BD4680BD00BF00080140C4
:1008800080B584B000AF78600023FB601CE0FB689B
:100890000133FB607B685A1C7A601B781846FFF7AF
:1008A000CDFFFB68102B04D100210220FFF766FF6B
:1008B0000AE0FB68202B07D1FFF742FF002101204F
:1008C000FFF75CFF0023FB607B681B78002BDED109
:1008D00000BF1037BD4680BD80B483B000AF034673
:1008E000FB80FB88802B42D0802B11DC082B36D07C
:1008F000082B06DC022B2ED0042B2ED0012B28D067
:1009000037E0202B2FD0402B2FD0102B29D030E0D8
:10091000B3F5006F23D0B3F5006F09DCB3F5007FAA
:1009200019D0B3F5806F18D0B3F5807F11D020E0D7
:10093000B3F5005F17D0B3F5005F03DCB3F5805F5C
:100940000FD016E0B3F5804F0FD0B3F5004F0ED0A7
:100950000FE000230EE004230CE008230AE00C2340
:1009600008E0102306E0142304E0182302E01C230F
:1009700000E0002318460C37BD4680BC704790B598
:1009800085B000AF786039600023BB600023FB7343
:100990003B681B88FF2B01D87B6801E07B68043330
:1009A000BB603B681B881846FFF796FF03461A4654
:1009B0000F239340DA43BB681B681A40BB681A6078
:1009C0003B689B78072B0BD03B689B78062B07D0A6
:1009D0003B689B78052B03D03B689B78042B0ED19A
:1009E0003B689B78043B9B005AB23B68DB785BB268
:1009F00013435BB2DBB203F00F03FB732CE03B68E5
:100A00009B78002B03D03B689B78012B07D13B6878
:100A10009B789B00DBB203F00F03FB731CE03B6889
:100A20009B78082B02D10423FB7315E00823FB738A
:100A30003B689B78022B07D17B68DB683A68128899
:100A40001A437B68DA6007E07B68DB683A681288E3
:100A5000D2431A407B68DA60FC7B3B681B881846EF
:100A6000FFF73AFF034604FA03F2BB681B681A4318
:100A7000BB681A6000BF1437BD4690BD80B485B016
:100A800000AF78600B467B807B689A687B88134058
:100A9000002B02D00123FB7301E00023FB73FB7BDF
:100AA00018461437BD4680BC704780B483B000AF91
:100AB00078600B467B8013467B707B78002B03D0DD
:100AC0007A887B681A6102E07A887B685A6100BF85
:100AD0000C37BD4680BC704780B483B000AF7860EF
:100AE0000B46FB70FA787B68DA6000BF0C37BD46B6
:100AF00080BC704770B500250C4E0D4CA41BA41093
:100B0000A54209D100F01AF800250A4E0A4CA41B90
:100B1000A410A54205D170BD56F82530984701357F
:100B2000EEE756F8253098470135F2E77C0B0008D0
:100B30007C0B00087C0B0008800B0008F8B500BF98
:100B4000F8BC08BC9E467047F8B500BFF8BC08BCAE
:040B50009E46704706
:100B54004B65797061642069732072656164790002
:100B64003031323334353637383930000179243076
:080B74004C12021900100100EF
:040B7C005501000817
:040B80003101000837
:100B84000100000002000000080000001000000046
:100B94002000000040000000800000000001000070
:04000005080002FDF0
:00000001FF
