:020000040800F2
:1000000000280020010500085105000851050008DE
:1000100051050008510500085105000800000000C6
:100020000000000000000000000000005105000872
:1000300051050008000000005105000851050008A6
:100040005105000851050008510500085105000838
:100050005105000851050008510500085105000828
:100060005105000851050008510500085105000818
:100070005105000851050008510500085105000808
:1000800051050008510500085105000851050008F8
:1000900051050008510500085105000851050008E8
:1000A00051050008510500085105000851050008D8
:1000B00051050008510500085105000851050008C8
:1000C00051050008510500085105000851050008B8
:1000D00051050008510500085105000851050008A8
:1000E00051050008510500080000000051050008F6
:1000F0005105000851050008510500085105000888
:100100005105000851050008510500085105000877
:100110005105000851050008510500085105000867
:100120005105000851050008510500085105000857
:1001300010B5054C237833B9044B13B10448AFF321
:1001400000800123237010BD080000200000000083
:100150009C05000808B5034B1BB103490348AFF3E6
:10016000008008BD000000000C0000209C05000875
:1001700080B400AF00BFBD4680BC704780B400AF04
:10018000034B044A1A6000BFBD4680BC704700BFE5
:1001900034000020B101000880B500AF034B0022FD
:1001A0001A7000F045F800BF184680BD38000020E6
:1001B00080B500AF084B01221A7000F047F8074BDA
:1001C0001B68074A1360074B074A1A60054B1B68F8
:1001D000984700BF184680BD38000020000000206E
:1001E0002400002034000020ED01000880B500AF9D
:1001F000084B02221A70084B1B68184600F0ACF836
:10020000054B00221A60054B054A1A6000BF1846CC
:1002100080BD00BF380000202400002034000020F2
:100220009901000880B400AF00BFBD4680BC704794
:1002300080B400AF034B044A1A6000BFBD4680BCC7
:10024000704700BF40000020B502000880B400AF36
:10025000034B044A1A6000BFBD4680BC704700BF14
:10026000400000208102000880B400AF034B002250
:100270001A7000BF1846BD4680BC70473C00002085
:1002800080B500AF084B01221A70012000F080F801
:100290003C2000F061F8002000F07AF8034B044A9B
:1002A0001A6000BF184680BD3C00002040000020BE
:1002B0006902000880B500AF054B02221A700020C9
:1002C00000F066F8034B044A1A6000BF184680BD70
:1002D0003C000020400000206902000880B400AF0C
:1002E00000BFBD4680BC704780B500AF0A4B0022FE
:1002F0001A7000F041F80246084B1A60074B1B6861
:10030000184600F0D1F8064B64221A60054B064AE5
:100310001A6000BF184680BD480000202800002059
:100320002C000020440000202D03000880B500AF01
:10033000064B1B68184600F00FF8044B00221A60A9
:10034000034B044A1A6000BF184680BD2C000020F1
:1003500044000020E902000880B483B000AF786058
:1003600002E07B68013B7B607B68002BF9D100BF1A
:100370000C37BD4680BC704780B400AF034B1B6890
:10038000DBB21846BD4680BC704700BF080801407C
:1003900080B582B000AF78607B68012B0AD10C4B2E
:1003A0001B680B4A43F40053136042F21070FFF7CE
:1003B000D3FF08E07B68002B05D1054B1B68044A7E
:1003C00023F40053136000BF0837BD4680BD00BF53
:1003D0000C08014080B400AF0F4B1B680E4A43F07D
:1003E000040313600D4B1B680C4A23F47003136065
:1003F0000A4B0A4A1B681360094B1B68084A23F41E
:1004000070031360064B1B68054A43F022331360E8
:1004100000BFBD4680BC7047181002400008014074
:100420000408014080B500AFFFF758FFFFF7A0FEBA
:10043000FFF7F8FE064B074A1A60074B074A1A6097
:10044000074B084A1A60084B084A1A6000BF80BD73
:1004500044000020E90200084C000020D5040008F8
:1004600034000020990100084000002069020008C3
:1004700080B500AFFFF7AEFFFFF7D4FF064B1B6858
:100480009847064B1B689847054B1B689847054BD8
:100490001B689847F2E700BF440000204C00002092
:1004A000340000204000002080B483B000AF7860AA
:1004B000054A7B681360054B054A1A6000BF0C377C
:1004C000BD4680BC704700BF300000204C000020BB
:1004D000D504000880B500AF064B00221A70064B09
:1004E0001A68064B1B689A4201DDFFF747FE00BF02
:1004F000184680BD49000020300000200400002084
:100500000D488546AFF300800C480D490D4A002385
:1005100002E0D458C4500433C4188C42F9D30A4AB8
:100520000A4C002301E013600432A242FBD300F026
:1005300011F8FFF79DFFFEE70028002000000020D3
:1005400008000020BC050008080000205000002022
:10055000FEE7000070B500250C4E0D4CA41BA41046
:10056000A54209D100F01AF800250A4E0A4CA41B36
:10057000A410A54205D170BD56F825309847013525
:10058000EEE756F8253098470135F2E7B405000844
:10059000B4050008B4050008B8050008F8B500BFA8
:1005A000F8BC08BC9E467047F8B500BFF8BC08BC54
:0405B0009E467047AC
:0405B40055010008E5
:0405B8003101000805
:0805BC003C00000014000000E7
:0400000508000501E9
:00000001FF
